{
  "abi": [
    {
      "inputs": [
        {
          "internalType": "address",
          "name": "_contractOwner",
          "type": "address"
        },
        {
          "internalType": "address",
          "name": "_diamondCutFacet",
          "type": "address"
        },
        {
          "internalType": "string",
          "name": "name_",
          "type": "string"
        },
        {
          "internalType": "string",
          "name": "symbol_",
          "type": "string"
        },
        {
          "internalType": "uint8",
          "name": "decimals_",
          "type": "uint8"
        }
      ],
      "stateMutability": "payable",
      "type": "constructor"
    },
    {
      "inputs": [],
      "name": "EmptyCalldata",
      "type": "error"
    },
    {
      "inputs": [
        {
          "internalType": "bytes4",
          "name": "selector",
          "type": "bytes4"
        }
      ],
      "name": "ImmutableFunction",
      "type": "error"
    },
    {
      "inputs": [],
      "name": "InValidFacetCutAction",
      "type": "error"
    },
    {
      "inputs": [],
      "name": "InitCallFailed",
      "type": "error"
    },
    {
      "inputs": [],
      "name": "MustBeZeroAddress",
      "type": "error"
    },
    {
      "inputs": [],
      "name": "NoCode",
      "type": "error"
    },
    {
      "inputs": [],
      "name": "NoSelectorsInFacet",
      "type": "error"
    },
    {
      "inputs": [],
      "name": "NoZeroAddress",
      "type": "error"
    },
    {
      "inputs": [],
      "name": "NonEmptyCalldata",
      "type": "error"
    },
    {
      "inputs": [
        {
          "internalType": "bytes4",
          "name": "selector",
          "type": "bytes4"
        }
      ],
      "name": "NonExistentSelector",
      "type": "error"
    },
    {
      "inputs": [
        {
          "internalType": "bytes4",
          "name": "selector",
          "type": "bytes4"
        }
      ],
      "name": "SameSelectorReplacement",
      "type": "error"
    },
    {
      "inputs": [
        {
          "internalType": "bytes4",
          "name": "selector",
          "type": "bytes4"
        }
      ],
      "name": "SelectorExists",
      "type": "error"
    },
    {
      "anonymous": false,
      "inputs": [
        {
          "components": [
            {
              "internalType": "address",
              "name": "facetAddress",
              "type": "address"
            },
            {
              "internalType": "enum IDiamondCut.FacetCutAction",
              "name": "action",
              "type": "uint8"
            },
            {
              "internalType": "bytes4[]",
              "name": "functionSelectors",
              "type": "bytes4[]"
            }
          ],
          "indexed": false,
          "internalType": "struct IDiamondCut.FacetCut[]",
          "name": "_diamondCut",
          "type": "tuple[]"
        },
        {
          "indexed": false,
          "internalType": "address",
          "name": "_init",
          "type": "address"
        },
        {
          "indexed": false,
          "internalType": "bytes",
          "name": "_calldata",
          "type": "bytes"
        }
      ],
      "name": "DiamondCut",
      "type": "event"
    },
    {
      "anonymous": false,
      "inputs": [
        {
          "indexed": true,
          "internalType": "address",
          "name": "previousOwner",
          "type": "address"
        },
        {
          "indexed": true,
          "internalType": "address",
          "name": "newOwner",
          "type": "address"
        }
      ],
      "name": "OwnershipTransferred",
      "type": "event"
    },
    {
      "stateMutability": "payable",
      "type": "fallback"
    },
    {
      "inputs": [],
      "name": "example",
      "outputs": [
        {
          "internalType": "string",
          "name": "",
          "type": "string"
        }
      ],
      "stateMutability": "pure",
      "type": "function"
    },
    {
      "stateMutability": "payable",
      "type": "receive"
    }
  ],
  "bytecode": {
    "object": "0x60806040526040516200151738038062001517833981016040819052620000269162000ed2565b620000318562000156565b604080516001808252818301909252600091816020015b60408051606080820183526000808352602083015291810191909152815260200190600190039081620000485750506040805160018082528183019092529192506000919060208083019080368337019050509050631f931c1c60e01b81600081518110620000bb57620000bb62000f7e565b6001600160e01b031990921660209283029190910182015260408051606081019091526001600160a01b03881681529081016000815260200182815250826000815181106200010e576200010e62000f7e565b60200260200101819052506200013c82600060405180602001604052806000815250620001da60201b60201c565b62000149858585620003f0565b5050505050505062001308565b7fc8fcad8db84d3cc18b4c41d551ea0ee66dd599cde068d998e57d5e09332c132080546001600160a01b031981166001600160a01b03848116918217909355604051600080516020620014f7833981519152939092169182907f8be0079c531659141344cd1fd0a4f28419497f9722a3daafe3b4186f6b6457e090600090a3505050565b60005b8351811015620003a1576000848281518110620001fe57620001fe62000f7e565b60200260200101516020015190506000600281111562000222576200022262000f94565b81600281111562000237576200023762000f94565b0362000295576200028f85838151811062000256576200025662000f7e565b60200260200101516000015186848151811062000277576200027762000f7e565b6020026020010151604001516200045860201b60201c565b6200038b565b6001816002811115620002ac57620002ac62000f94565b0362000304576200028f858381518110620002cb57620002cb62000f7e565b602002602001015160000151868481518110620002ec57620002ec62000f7e565b6020026020010151604001516200063960201b60201c565b60028160028111156200031b576200031b62000f94565b0362000373576200028f8583815181106200033a576200033a62000f7e565b6020026020010151600001518684815181106200035b576200035b62000f7e565b6020026020010151604001516200082160201b60201c565b60405162c5e5d760e31b815260040160405180910390fd5b5080620003988162000fc0565b915050620001dd565b507f8faa70878671ccd212d20771b795c50af8fd3ff6cf27f4bde57e5d4de0aeb673838383604051620003d7939291906200100a565b60405180910390a1620003eb8282620008fe565b505050565b600080516020620014f78339815191527fc8fcad8db84d3cc18b4c41d551ea0ee66dd599cde068d998e57d5e09332c13256200042d85826200119f565b50600a81016200043e84826200119f565b50600b01805460ff191660ff929092169190911790555050565b60008151116200047b5760405163092d2fe560e41b815260040160405180910390fd5b600080516020620014f78339815191526001600160a01b038316620004b35760405163ddbadd5f60e01b815260040160405180910390fd5b6001600160a01b0383166000908152600182016020526040812054906001600160601b0382169003620004ec57620004ec828562000a18565b60005b83518110156200063257600084828151811062000510576200051062000f7e565b6020908102919091018101516001600160e01b031981166000908152918690526040909120549091506001600160a01b03168015620005735760405163501e70c760e01b81526001600160e01b0319831660048201526024015b60405180910390fd5b6001600160e01b0319821660008181526020878152604080832080546001600160a01b03908116600160a01b6001600160601b038c16021782558c168085526001808c0185529285208054938401815585528385206008840401805463ffffffff60079095166004026101000a948502191660e08a901c94909402939093179092559390925287905281546001600160a01b0319161790558362000617816200126b565b94505050508080620006299062000fc0565b915050620004ef565b5050505050565b60008151116200065c5760405163092d2fe560e41b815260040160405180910390fd5b600080516020620014f78339815191526001600160a01b038316620006945760405163ddbadd5f60e01b815260040160405180910390fd5b6001600160a01b0383166000908152600182016020526040812054906001600160601b0382169003620006cd57620006cd828562000a18565b60005b835181101562000632576000848281518110620006f157620006f162000f7e565b6020908102919091018101516001600160e01b031981166000908152918690526040909120549091506001600160a01b0390811690871681036200075557604051631c04188b60e31b81526001600160e01b0319831660048201526024016200056a565b6200076285828462000a6b565b6001600160e01b0319821660008181526020878152604080832080546001600160a01b03908116600160a01b6001600160601b038c16021782558c168085526001808c0185529285208054938401815585528385206008840401805463ffffffff60079095166004026101000a948502191660e08a901c94909402939093179092559390925287905281546001600160a01b0319161790558362000806816200126b565b94505050508080620008189062000fc0565b915050620006d0565b6000815111620008445760405163092d2fe560e41b815260040160405180910390fd5b600080516020620014f78339815191526001600160a01b038316156200087d57604051631be65fe560e21b815260040160405180910390fd5b60005b8251811015620008f8576000838281518110620008a157620008a162000f7e565b6020908102919091018101516001600160e01b031981166000908152918590526040909120549091506001600160a01b0316620008e084828462000a6b565b50508080620008ef9062000fc0565b91505062000880565b50505050565b6001600160a01b03821662000932578051156200092e5760405163c21b1ab760e01b815260040160405180910390fd5b5050565b80516000036200095557604051633011e86160e21b815260040160405180910390fd5b6001600160a01b03821630146200097157620009718262000dc7565b600080836001600160a01b0316836040516200098e91906200129c565b600060405180830381855af49150503d8060008114620009cb576040519150601f19603f3d011682016040523d82523d6000602084013e620009d0565b606091505b509150915081620008f857805115620009ff578060405162461bcd60e51b81526004016200056a9190620012ba565b604051633a18f8dd60e01b815260040160405180910390fd5b62000a238162000dc7565b6002820180546001600160a01b0390921660008181526001948501602090815260408220860185905594840183559182529290200180546001600160a01b0319169091179055565b6001600160a01b03821662000a9f57604051622902d360e91b81526001600160e01b0319821660048201526024016200056a565b306001600160a01b0383160362000ad65760405163069731c560e41b81526001600160e01b0319821660048201526024016200056a565b6001600160e01b03198116600090815260208481526040808320546001600160a01b0386168452600180880190935290832054600160a01b9091046001600160601b0316929162000b2791620012d6565b905080821462000c20576001600160a01b0384166000908152600186016020526040812080548390811062000b605762000b6062000f7e565b600091825260208083206008830401546001600160a01b038916845260018a019091526040909220805460079092166004026101000a90920460e01b92508291908590811062000bb45762000bb462000f7e565b600091825260208083206008830401805463ffffffff60079094166004026101000a938402191660e09590951c929092029390931790556001600160e01b03199290921682528690526040902080546001600160a01b0316600160a01b6001600160601b038516021790555b6001600160a01b0384166000908152600186016020526040902080548062000c4c5762000c4c620012f2565b60008281526020808220600860001990940193840401805463ffffffff600460078716026101000a0219169055919092556001600160e01b031985168252869052604081208190558190036200063257600285015460009062000cb290600190620012d6565b6001600160a01b038616600090815260018089016020526040909120015490915080821462000d6857600087600201838154811062000cf55762000cf562000f7e565b6000918252602090912001546002890180546001600160a01b03909216925082918490811062000d295762000d2962000f7e565b600091825260208083209190910180546001600160a01b0319166001600160a01b03948516179055929091168152600189810190925260409020018190555b8660020180548062000d7e5762000d7e620012f2565b60008281526020808220830160001990810180546001600160a01b03191690559092019092556001600160a01b0388168252600189810190915260408220015550505050505050565b803b806200092e57604051633c11a9c560e21b815260040160405180910390fd5b80516001600160a01b038116811462000e0057600080fd5b919050565b634e487b7160e01b600052604160045260246000fd5b60005b8381101562000e3857818101518382015260200162000e1e565b50506000910152565b600082601f83011262000e5357600080fd5b81516001600160401b038082111562000e705762000e7062000e05565b604051601f8301601f19908116603f0116810190828211818310171562000e9b5762000e9b62000e05565b8160405283815286602085880101111562000eb557600080fd5b62000ec884602083016020890162000e1b565b9695505050505050565b600080600080600060a0868803121562000eeb57600080fd5b62000ef68662000de8565b945062000f066020870162000de8565b60408701519094506001600160401b038082111562000f2457600080fd5b62000f3289838a0162000e41565b9450606088015191508082111562000f4957600080fd5b5062000f588882890162000e41565b925050608086015160ff8116811462000f7057600080fd5b809150509295509295909350565b634e487b7160e01b600052603260045260246000fd5b634e487b7160e01b600052602160045260246000fd5b634e487b7160e01b600052601160045260246000fd5b60006001820162000fd55762000fd562000faa565b5060010190565b6000815180845262000ff681602086016020860162000e1b565b601f01601f19169290920160200192915050565b60006060808301818452808751808352608092508286019150828160051b8701016020808b0160005b84811015620010df57898403607f19018652815180516001600160a01b031685528381015189860190600381106200107b57634e487b7160e01b600052602160045260246000fd5b868601526040918201519186018a905281519081905290840190600090898701905b80831015620010c95783516001600160e01b03191682529286019260019290920191908601906200109d565b5097850197955050509082019060010162001033565b50506001600160a01b038a1690880152868103604088015262001103818962000fdc565b9a9950505050505050505050565b600181811c908216806200112657607f821691505b6020821081036200114757634e487b7160e01b600052602260045260246000fd5b50919050565b601f821115620003eb57600081815260208120601f850160051c81016020861015620011765750805b601f850160051c820191505b81811015620011975782815560010162001182565b505050505050565b81516001600160401b03811115620011bb57620011bb62000e05565b620011d381620011cc845462001111565b846200114d565b602080601f8311600181146200120b5760008415620011f25750858301515b600019600386901b1c1916600185901b17855562001197565b600085815260208120601f198616915b828110156200123c578886015182559484019460019091019084016200121b565b50858210156200125b5787850151600019600388901b60f8161c191681555b5050505050600190811b01905550565b60006001600160601b038281166002600160601b0319810162001292576200129262000faa565b6001019392505050565b60008251620012b081846020870162000e1b565b9190910192915050565b602081526000620012cf602083018462000fdc565b9392505050565b81810381811115620012ec57620012ec62000faa565b92915050565b634e487b7160e01b600052603160045260246000fd5b6101df80620013186000396000f3fe6080604052600436106100225760003560e01c806354353f2f146100e557610029565b3661002957005b600080356001600160e01b03191681527fc8fcad8db84d3cc18b4c41d551ea0ee66dd599cde068d998e57d5e09332c131c602081905260409091205481906001600160a01b0316806100c15760405162461bcd60e51b815260206004820181905260248201527f4469616d6f6e643a2046756e6374696f6e20646f6573206e6f74206578697374604482015260640160405180910390fd5b3660008037600080366000845af43d6000803e8080156100e0573d6000f35b3d6000fd5b3480156100f157600080fd5b506100fa610110565b6040516101079190610130565b60405180910390f35b60606040518060600160405280602b815260200161017f602b9139905090565b600060208083528351808285015260005b8181101561015d57858101830151858201604001528201610141565b506000604082860101526040601f19601f830116850101925050509291505056fe5448495320495320414e204558414d504c45204f4620414e20494d4d555441424c452046554e4354494f4ea26469706673582212207eccc12c9f9615a361057d9fde81bbc7c1532858e09781d351a03f5fad9039b564736f6c63430008150033c8fcad8db84d3cc18b4c41d551ea0ee66dd599cde068d998e57d5e09332c131c",
    "linkReferences": {}
  },
  "methodIdentifiers": {
    "example()": "54353f2f"
  },
  "id": 0
}